:020000040800F2
:100000005004002045010008C1040008B90400089C
:10001000BD0400088D010008090800080000000068
:10002000000000000000000000000000250500089E
:100030009101000800000000C30400081106000838
:100040005F0100085F0100085F0100085F01000810
:100050005F0100085F0100085F0100085F01000800
:100060005F0100085F0100085F0100085F010008F0
:100070005F0100085F0100085F0100085F010008E0
:100080005F0100085F0100085F0100085F010008D0
:100090005F0100085F0100085F0100085F010008C0
:1000A0005F0100085F0100085F0100085F010008B0
:1000B0005F0100085F0100085F0100085F010008A0
:1000C0005F0100085F0100085F0100085F01000890
:1000D0005F0100085F0100085F0100085F01000880
:1000E000950100085F0100085F0100085F0100083A
:1000F0005F0100085F0100085F0100085F01000860
:100100005F0100085F0100085F0100085F0100084F
:100110005F0100085F0100085F0100085F0100083F
:100120005F0100085F0100085F0100085F0100082F
:10013000DFF80CD000F018F8004800475508000818
:10014000500400200648804706480047FEE7FEE7C7
:10015000FEE7FEE7FEE7FEE7FEE7FEE7FEE7FEE777
:100160001506000831010008064C074D06E0E0685E
:1001700040F0010394E8070098471034AC42F6D3EE
:10018000FFF7DAFFBC350008DC35000800BFFEE7EA
:100190007047000010B54FF4005000F017F848B158
:1001A0004FF4005000F00CF80348006810B901202B
:1001B0000249086010BD000004000020000000207B
:1001C0000149086070470000140401400146002006
:1001D0000022074B1B6803EA0102054B14331B681E
:1001E0000B4013B10AB1012000E00020704700006D
:1001F0000004014051B18200A2F1C042126842F0F5
:1002000001038200A2F1C042136009E08200A2F162
:10021000C0421268034B1A408300A3F1C0431A6026
:1002200070470000FEFF0F00D0E901121143C268C1
:100230001143026911434269114382691143C26942
:100240001143026A1143426A1143826A1143C26A2E
:100250001143026B114302689200A2F1C042116087
:10026000816808290BD101688900A1F1C0410968A2
:1002700041F0400201688900A1F1C0410A60416B70
:100280000968426B526841EA0211426B926841EA86
:100290000221426B928941EA0241426B128A41EA91
:1002A0000251426B127D41EA0261426B9269114335
:1002B0000268521C9200A2F1C0421160C16AB1F5FD
:1002C000804F1BD1816B0968826B526841EA021131
:1002D000826B926841EA0221826B128A41EA0251E2
:1002E000826B127D41EA0261826B9269114302685E
:1002F0009200A2F1C042C2F8041107E06FF0704210
:1003000001688900A1F1C041C1F8042170472DE9BD
:10031000F04102460025002600200023002400278B
:1003200091F803C00CF00F0591F803C00CF0100C0D
:10033000BCF1000F03D091F802C04CEA050591F81A
:1003400000C0BCF1000F31D0146800202BE04FF04A
:10035000010C0CFA00F3B1F800C00CEA03069E424F
:1003600020D183004FF00F0C0CFA03F7BC4305FAC1
:1003700003FC4CEA040491F803C0BCF1280F06D139
:100380004FF0010C0CFA00FCC2F814C00AE091F81E
:1003900003C0BCF1480F05D14FF0010C0CFA00FC72
:1003A000C2F810C0401C0828D1D31460B1F800C0B6
:1003B000BCF1FF0F34DD546800202EE000F1080C82
:1003C0004FF0010808FA0CF3B1F800C00CEA03067C
:1003D0009E4221D183004FF00F0C0CFA03F7BC436F
:1003E00005FA03FC4CEA040491F803C0BCF1280FA1
:1003F00005D100F1080C08FA0CF8C2F8148091F845
:1004000003C0BCF1480F07D100F1080C4FF0010800
:1004100008FA0CF8C2F81080401C0828CED35460AB
:10042000BDE8F081F0B50A46002300240021002534
:1004300000F00046B6F1004F02D11D4EF16901E017
:100440001B4E7168C0F3034583B200F44016B6F545
:10045000401F08D121F07061154E766826F0706655
:10046000134F7E6012E000F48016B6F5801F06D1AF
:10047000032606FA05F4A14341F0706106E0460D3B
:10048000360103FA06F6B14341F0706122B1460D20
:10049000360103FA06F6314300F00046B6F1004F8C
:1004A00002D1034EF16101E0014E7160F0BD000028
:1004B000000001400161704700BFFEE700BFFEE79A
:1004C0007047704729B1064A52690243044B5A618A
:1004D00004E0034A52698243014B5A6170470000AD
:1004E0000010024029B1064AD2690243044BDA6186
:1004F00004E0034AD2698243014BDA61704700008D
:100500000010024029B1064A92690243044B9A61E5
:1005100004E0034A92698243014B9A6170470000EC
:1005200000100240704710B500F002F810BD000046
:100530000CB50020019000903348006840F48030F2
:100540003149086000BF3048006800F40030009076
:100550000198401C0190009818B90198B0F5A06F5F
:10056000F1D12948006800F4003010B1012000905A
:1005700001E0002000900098012843D12348006842
:1005800040F01000214908600846006820F0030090
:1005900008600846006840F0020008601A48406899
:1005A000194948600846406848600846406840F479
:1005B000806048600846406820F47C104860084627
:1005C000406840F4E81048600846006840F08070D9
:1005D000086000BF0C48006800F000700028F9D0E7
:1005E0000948406820F00300074948600846406811
:1005F00040F00200486000BF0348406800F00C0073
:100600000828F9D10CBD0000001002400020024073
:100610007047000010B51348006840F00100114910
:10062000086008464068104908400E49486008467E
:1006300000680E4908400B4908600846006820F42D
:10064000802008600846406820F4FE0048604FF4AF
:100650001F008860FFF767FF4FF0006004490860E3
:1006600010BD0000001002400000FFF8FFFFF6FE82
:1006700008ED00E021B1028842F08002028004E02F
:1006800002884FF67F731A400280704721B10288BA
:1006900042F00102028004E002884FF6FE731A4025
:1006A0000280704770B5002400220023058C4FF6AD
:1006B000EF7635400584028C8388048B48F6FF75FD
:1006C0002C404FF6FF452C400D884FF6FF7606EA8A
:1006D00005252C434FF6DF752A400D8906EA0515DE
:1006E0002A434D8806EA05152A43154DA84202D033
:1006F000144DA8421DD14FF67F752A404D894FF603
:10070000FF7606EA05152A434FF6BF752A408D8805
:1007100006EA05152A434FF6FF352B404FF2FF75C9
:100720002B408D8906EA85052B43CD8906EA850590
:100730002B4383800483CD880587028470BD00002D
:10074000002C0140003401400A460021018B4FF289
:10075000FF7319404FF6FF7303EA02231943018325
:1007600070470000002202881D4B98420ED01D4B9E
:1007700098420BD0B0F1804F08D01B4B984205D067
:100780001A4B984202D01A4B984204D14FF68F73FD
:100790001A404B881A43174B984207D0164B984281
:1007A00004D04FF6FF431A40CB881A4302808B884F
:1007B00083850B8803850A4B98420BD0094B9842DE
:1007C00008D00E4B984205D00D4B984202D00D4BED
:1007D000984201D10B7A038601238382704700007F
:1007E000002C01400034014000040040000800409B
:1007F000000C004000100040001400400040014088
:10080000004401400048014000BFFEE702E008C884
:10081000121F08C1002AFAD170477047002001E07A
:1008200001C1121F002AFBD17047000008B5012149
:100830000820FFF767FE0320ADF800008DF80200E6
:1008400010208DF8030069460148FFF760FD08BDE0
:10085000000C0140FFF7EAFF00F0B2F8002000F0C2
:100860009DF800F035FA00214FF6E07000F01CFA18
:10087000042000F0D7F906A000F0AEF901210948E4
:10088000FFF718FE02210748FFF714FE00BFFEE73E
:1008900048656C6C6F203C3C535344313238393ED0
:1008A0003E000000000C01401FB51F4800681F49B2
:1008B000B0FBF1F0401E84B201210920FFF722FEB7
:1008C00001210220FFF70EFE2020ADF80C001820B9
:1008D0008DF80F0003208DF80E0003A91448FFF7D0
:1008E00016FD01211348FFF79DFD0020ADF806001D
:1008F000ADF802008DF80800ADF8004040F2E73096
:10090000ADF8040069460C48FFF72CFF08210A489F
:10091000FFF71AFF01210848FFF7ACFE0121064846
:10092000FFF7B4FE1FBD00000800002040420F008A
:10093000000C014000081A00000400401FB50446E6
:100940006020ADF800000120ADF8020004EB840047
:100950004FF6FF7101EA4000ADF806000020ADF847
:10096000080069460248FFF79DFE024804601FBD6B
:10097000000400402400002010B5002409E0064ACD
:1009800002EB84025188044A12F8240000F0B4F902
:10099000641C2C2CF3DB10BD0835000870B5044630
:1009A0000021084600F02EF9002502E003480480EB
:1009B0006D1CB5F5963FF9DB70BD000000000260CC
:1009C00010B500F055F800F023F8002000F010F901
:1009D000044641F28920844203D048F689108442BB
:1009E00008D1FFF7C9FFFFF75FFF6420FFF7A6FFFD
:1009F000002010BDF020044908604FF4A0700349A6
:100A000008606FF07A00F4E71C000020200000204E
:100A100000B597B001210802FFF754FD09200190AD
:100A2000012002900720039000200490059006907A
:100A30000790089009900A9010200B9000200C90CD
:100A40000D900E900F9010904FF480501190002058
:100A500012901390149001A81590169008A8FFF713
:100A6000E3FB01210020FFF7C5FB17B000BD00002C
:100A700008B501212020FFF745FD01214020FFF7A7
:100A800041FD4CF6B370ADF8000018208DF803005E
:100A900003208DF8020069460848FFF738FC4FF63E
:100AA0008870ADF8000018208DF8030003208DF841
:100AB000020069460248FFF72AFC08BD0014014005
:100AC000001801402DE9FF5F06460F4691461F487A
:100AD000006803901D48808802901C48C0880190DF
:100AE0001A48B0F80880408900901848408900FBF7
:100AF00009FB002525E0154840690BEB050110F8BE
:100B000001A000241AE04AFA04F000F0010048B104
:100B10007A1991B206EB0802121B90B2029A00F009
:100B2000C9F80AE0039840B97A1991B206EB0802B5
:100B3000121B90B2019A00F0BDF8641C4445E2DB40
:100B40006D1C00988542D6DBBDE8FF9F2800002081
:100B50002DE9F84F04461F488569C6690789B0F832
:100B60000AA0D0F80CB00069009005FB07F005FB67
:100B70000B090A2C08D11748C069401C1549C861E7
:100B800000208861BDE8F88F0D2C03D100201149A9
:100B90008861F7E7C7F1F10048450ADC4FF000092A
:100BA00000200C4988610846C069401CC86108469D
:100BB000C66906FB0AF0009906FB01082246414679
:100BC0004846FFF77FFF03488069401C0149886160
:100BD00000BFD7E72800002010B5044603E02078C6
:100BE000FFF7B6FF641C20780028F8D110BD000084
:100BF00001464FF0C0400180014800887047000066
:100C00000000026070B504460D4621464E2000F0FB
:100C100073F829464F2000F06FF822204FF0C041B2
:100C2000088070BD022806D003280FD0042818D0F1
:100C300005282CD120E01749174A5161082111815C
:100C400051810021D1600121116120E01349124A34
:100C5000516108211181102151810121D16011615F
:100C600015E00F490C4A5161082111815181002181
:100C7000D160012111610AE00A49074A5161082146
:100C8000118151810021D1600121116100BF00BF9C
:100C900070470000080D0008280000200815000813
:100CA00008250008082D0008014B9880D98070475E
:100CB0002800002070B505460E46144631462846E9
:100CC000FFF7A0FF0148048070BD00000000026033
:100CD00000B50020074908604FF6FF7088800020AB
:100CE000C8800320FFF79EFF002002498861C86189
:100CF000088400BD280000204FF0C0421080014A47
:100D00001180704700000260000000000000000039
:100D10007E81A581BD99817E7EFFBDFFC3E7FF7EF9
:100D20006CFEFEFE7C38100010387CFE7C38100013
:100D300000183CE7E73C180000003C3C3C3C00004D
:100D400000003C3C3C3C000000003C3C3C3C0000C3
:100D500000003C3C3C3C000000003C3C3C3C0000B3
:100D600000003C3C3C3C000000003C3C3C3C0000A3
:100D700000003C3C3C3C000000003C3C3C3C000093
:100D800000003C3C3C3C00000060787E7E786000C7
:100D900000061E7E7E1E060000003C3C3C3C00001F
:100DA00000003C3C3C3C000000003C3C3C3C000063
:100DB0003C603C663C063C0000003C3C3C3C000087
:100DC00000003C3C3C3C000000003C3C3C3C000043
:100DD00000003C3C3C3C000000003C3C3C3C000033
:100DE00000003C3C3C3C000000003C3C3C3C000023
:100DF00000003C3C3C3C00000018183C3C7E7E005F
:100E0000007E7E3C3C18180000000000000000003E
:100E1000183C3C18180018006C6C6C0000000000B6
:100E200036367F367F3636000C3F683E0B7E180024
:100E300060660C1830660600386C6C386D663B00D6
:100E400018181800000000000C18303030180C0082
:100E500030180C0C0C18300000187E3C7E18000076
:100E60000018187E18180000000000000018183044
:100E70000000007E000000000000000000181800C4
:100E800000060C18306000003C666E7E76663C0002
:100E90001838181818187E003C66060C18307E00AA
:100EA0003C66061C06663C000C1C3C6C7E0C0C0070
:100EB0007E607C0606663C001C30607C66663C00FA
:100EC0007E060C18303030003C66663C66663C009E
:100ED0003C66663E060C3800000018180018180022
:100EE00000001818001818300C18306030180C006A
:100EF00000007E007E00000030180C060C18300048
:100F00003C660C18180018003C666E6A6E603C0067
:100F10003C66667E666666007C66667C66667C000D
:100F20003C66606060663C00786C6666666C780063
:100F30007E60607C60607E007E60607C60606000DF
:100F40003C66606E66663C006666667E6666660047
:100F50007E18181818187E003E0C0C0C0C6C38000B
:100F6000666C7870786C66006060606060607E00BF
:100F700063777F6B6B6363006666767E6E66660082
:100F80003C66666666663C007C66667C6060600007
:100F90003C6666666A6C36007C66667C6C666600DB
:100FA0003C66603C06663C007E181818181818004D
:100FB0006666666666663C0066666666663C18003F
:100FC00063636B6B7F77630066663C183C66660004
:100FD0006666663C181818007E060C1830607E00A5
:100FE0007C60606060607C00006030180C0600006F
:100FF0003E06060606063E003C66000000000000B5
:1010000000000000000000FF301800000000000099
:1010100000003C063E663E0060607C6666667C00C2
:1010200000003C6660663C0006063E6666663E0062
:1010300000003C667E603C001C30307C303030006C
:1010400000003E66663E063C60607C666666660042
:101050001800381818183C0018003818181818709C
:101060006060666C786C66003818181818183C00B8
:101070000000367F6B6B630000007C66666666006E
:1010800000003C6666663C0000007C66667C606032
:1010900000003E66663E060700006C7660606000F9
:1010A00000003E603C067C0030307C3030301C005C
:1010B0000000666666663E0000006666663C1800D4
:1010C0000000636B6B7F36000000663C183C6600D6
:1010D00000006666663E063C00007E0C18307E000E
:1010E0000C18187018180C00181818181818180070
:1010F0003018180E18183000316B46000000000040
:10110000FFFFFFFFFFFFFFFF3C666060663C306053
:101110006600666666663E000C183C667E603C00B3
:1011200018663C063E663E0066003C063E663E0093
:1011300030183C063E663E003C663C063E663E007D
:1011400000003C6660663C603C663C667E603C003D
:1011500066003C667E603C0030183C667E603C0069
:101160006600003818183C003C66003818183C002F
:101170003018003818183C006666003C667E660031
:101180001866003C667E66000C187E607C607E00FF
:1011900000003F0D3F6C3F003F66667F666667005C
:1011A0003C66003C66663C006600003C66663C00AF
:1011B0003018003C66663C003C66006666663E0091
:1011C0003018006666663E0066006666663E063C4F
:1011D00066003C6666663C006600666666663C00C5
:1011E000083E6B686B3E08001C36307C30307E0059
:1011F000663C18187E18180000003C3C3C3C00007F
:1012000000003C3C3C3C00000C183C063E663E00A6
:101210000C18003818183C000C18003C66663C009E
:101220000C18006666663E00366C007C66666600DA
:10123000366C0066766E66001C061E361E003E008A
:101240001C3636361C003E001800181830663C006C
:101250007E060000000000007E0600000000000086
:1012600040C0404F410F080F40C04048480A0F029D
:101270001800181818181800003366CCCC66330014
:1012800000CC66333366CC002288228822882288EC
:1012900055AA55AA55AA55AADD77DD77DD77DD7702
:1012A0001818181818181818181818F818181818DE
:1012B0001818F818F8181818666666E666666666FE
:1012C000000000FE666666660000F818F818181838
:1012D0006666E606E666666666666666666666660E
:1012E0000000FE06E66666666666E606FE0000002C
:1012F000666666FE000000001818F818F800000086
:10130000000000F8181818181818181F000000001E
:10131000181818FF00000000000000FF1818181827
:101320001818181F18181818000000FF00000000F7
:10133000181818FF1818181818181F181F18181838
:101340006666666766666666666667607F0000005A
:1013500000007F60676666666666E700FF00000063
:101360000000FF00E7666666666667606766666639
:101370000000FF00FF0000006666E700E7666666A3
:101380001818FF00FF000000666666FF00000000FE
:101390000000FF00FF181818000000FF6666666670
:1013A0006666667F0000000018181F181F00000006
:1013B00000001F181F1818180000007F6666666678
:1013C000666666FF666666661818FF18FF181818C6
:1013D000181818F8000000000000001F181818184E
:1013E000FFFFFFFFFFFFFFFF00000000FFFFFFFF09
:1013F000F0F0F0F0F0F0F0F00F0F0F0F0F0F0F0FF5
:10140000FFFFFFFF0000000000003C3C3C3C0000F0
:101410003C66666C66666CC000003C3C3C3C000070
:1014200000003C3C3C3C000000003C3C3C3C0000DC
:1014300000003C3C3C3C00000000333333333E6052
:1014400000003C3C3C3C000000003C3C3C3C0000BC
:1014500000003C3C3C3C000000003C3C3C3C0000AC
:1014600000003C3C3C3C000000003C3C3C3C00009C
:1014700000003C3C3C3C000000003C3C3C3C00008C
:1014800000003C3C3C3C000000003C3C3C3C00007C
:1014900018187E1818007E0000003C3C3C3C000000
:1014A00000003C3C3C3C000000003C3C3C3C00005C
:1014B00000003C3C3C3C0000001800FF001800000D
:1014C00000003C3C3C3C00003C663C00000000004E
:1014D00000003C3C3C3C00000000001818000000EC
:1014E00000003C3C3C3C000000003C3C3C3C00001C
:1014F000380418203C00000000003C3C3C3C00004C
:1015000000000000000000000000000000000000DB
:10151000000000000000000000007E81A58181BD68
:101520009981817E0000000000007EFFDBFFFFC389
:10153000E7FFFF7E00000000000000006CFEFEFEE2
:10154000FE7C3810000000000000000010387CFE17
:101550007C38100000000000000000183C3CE7E769
:10156000E718183C00000000000000183C7EFFFF58
:101570007E18183C00000000000000000000183C2D
:101580003C18000000000000FFFFFFFFFFFFE7C363
:10159000C3E7FFFFFFFFFFFF00000000003C6642C3
:1015A00042663C0000000000FFFFFFFFFFC399BD43
:1015B000BD99C3FFFFFFFFFF00001E0E1A3278CC5B
:1015C000CCCCCC780000000000003C666666663C2F
:1015D000187E18180000000000003F333F30303004
:1015E0003070F0E00000000000007F637F63636301
:1015F0006367E7E6C00000000000001818DB3CE766
:101600003CDB1818000000000080C0E0F0F8FEF895
:10161000F0E0C080000000000002060E1E3EFE3E0C
:101620001E0E0602000000000000183C7E1818186C
:101630007E3C180000000000000066666666666674
:10164000660066660000000000007FDBDBDB7B1BC2
:101650001B1B1B1B00000000007CC660386CC6C64C
:101660006C380CC67C000000000000000000000088
:10167000FEFEFEFE000000000000183C7E18181858
:101680007E3C187E000000000000183C7E181818F0
:10169000181818180000000000001818181818185A
:1016A000187E3C18000000000000000000180CFE2E
:1016B0000C1800000000000000000000003060FE78
:1016C0006030000000000000000000000000C0C00A
:1016D000C0FE0000000000000000000000286CFEBA
:1016E0006C28000000000000000000001038387C6A
:1016F0007CFEFE000000000000000000FEFE7C7C7E
:101700003838100000000000000000000000000059
:1017100000000000000000000000183C3C3C1818CD
:10172000180018180000000000666666240000001B
:1017300000000000000000000000006C6CFE6C6CFB
:101740006CFE6C6C0000000018187CC6C2C07C06E1
:101750000686C67C1818000000000000C2C60C18DF
:101760003060C686000000000000386C6C3876DC03
:10177000CCCCCC760000000000303030600000009F
:10178000000000000000000000000C183030303075
:101790003030180C00000000000030180C0C0C0C4D
:1017A0000C0C1830000000000000000000663CFF38
:1017B0003C66000000000000000000000018187ED9
:1017C00018180000000000000000000000000000E9
:1017D000001818183000000000000000000000FE93
:1017E00000000000000000000000000000000000F9
:1017F00000001818000000000000000002060C188D
:101800003060C080000000000000386CC6C6D6D62C
:10181000C6C66C3800000000000018387818181888
:101820001818187E0000000000007CC6060C183056
:1018300060C0C6FE0000000000007CC606063C0634
:101840000606C67C0000000000000C1C3C6CCCFEB0
:101850000C0C0C1E000000000000FEC0C0C0FC0606
:101860000606C67C0000000000003860C0C0FCC650
:10187000C6C6C67C000000000000FEC606060C18A6
:10188000303030300000000000007CC6C6C67CC688
:10189000C6C6C67C0000000000007CC6C6C67E0628
:1018A00006060C7800000000000000001818000078
:1018B00000181800000000000000000018180000C8
:1018C0000018183000000000000000060C183060FE
:1018D00030180C060000000000000000007E000030
:1018E0007E000000000000000000006030180C06C0
:1018F0000C1830600000000000007CC6C60C1818F0
:1019000018001818000000000000007CC6C6DEDECB
:10191000DEDCC07C00000000000010386CC6C6FE93
:10192000C6C6C6C6000000000000FC6666667C668F
:10193000666666FC0000000000003C66C2C0C0C0D5
:10194000C0C2663C000000000000F86C6666666677
:1019500066666CF8000000000000FE666268786849
:10196000606266FE000000000000FE666268786843
:10197000606060F00000000000003C66C2C0C0DE95
:10198000C6C6663A000000000000C6C6C6C6FEC64F
:10199000C6C6C6C60000000000003C18181818187B
:1019A0001818183C0000000000001E0C0C0C0C0C59
:1019B000CCCCCC78000000000000E666666C78783D
:1019C0006C6666E6000000000000F0606060606029
:1019D000606266FE000000000000C6EEFEFED6C695
:1019E000C6C6C6C6000000000000C6E6F6FEDECE93
:1019F000C6C6C6C60000000000007CC6C6C6C6C675
:101A0000C6C6C67C000000000000FC6666667C60FE
:101A1000606060F00000000000007CC6C6C6C6C65C
:101A2000C6D6DE7C0C0E00000000FC6666667C6C90
:101A3000666666E60000000000007CC6C660380CE2
:101A400006C6C67C0000000000007E7E5A181818EA
:101A50001818183C000000000000C6C6C6C6C6C65E
:101A6000C6C6C67C000000000000C6C6C6C6C6C604
:101A7000C66C3810000000000000C6C6C6C6D6D628
:101A8000D6FEEE6C000000000000C6C66C7C383844
:101A90007C6CC6C6000000000000666666663C18E6
:101AA0001818183C000000000000FEC6860C183014
:101AB00060C2C6FE0000000000003C303030303014
:101AC0003030303C0000000000000080C0E0703882
:101AD0001C0E06020000000000003C0C0C0C0C0C5C
:101AE0000C0C0C3C0000000010386CC6000000001C
:101AF00000000000000000000000000000000000E6
:101B00000000000000FF00000030180C0000000082
:101B100000000000000000000000000000780C7CC5
:101B2000CCCCCC76000000000000E06060786C66F1
:101B30006666667C0000000000000000007CC6C0F5
:101B4000C0C0C67C0000000000001C0C0C3C6CCC2B
:101B5000CCCCCC760000000000000000007CC6FE6B
:101B6000C0C0C67C0000000000001C363230783057
:101B70003030307800000000000000000076CCCC4F
:101B8000CCCCCC7C0CCC78000000E060606C76663D
:101B9000666666E600000000000018180038181895
:101BA0001818183C0000000000000606000E06068B
:101BB0000606060666663C000000E06060666C781B
:101BC000786C66E600000000000038181818181835
:101BD0001818183C000000000000000000ECFED6C1
:101BE000D6D6D6C6000000000000000000DC666605
:101BF000666666660000000000000000007CC6C645
:101C0000C6C6C67C000000000000000000DC66665E
:101C10006666667C6060F000000000000076CCCC58
:101C2000CCCCCC7C0C0C1E000000000000DC7666E6
:101C3000606060F00000000000000000007CC660F2
:101C4000380CC67C000000000000103030FC303042
:101C50003030361C000000000000000000CCCCCC6E
:101C6000CCCCCC76000000000000000000C6C6C648
:101C7000C6C66C38000000000000000000C6C6D6D2
:101C8000D6D6FE6C000000000000000000C66C38D4
:101C900038386CC6000000000000000000C6C6C650
:101CA000C6C6C67E060CF8000000000000FECC1878
:101CB0003060C6FE0000000000000E1818187018F2
:101CC0001818180E0000000000001818181818182E
:101CD00018181818000000000000701818180E18C6
:101CE00018181870000000000076DC0000000000EA
:101CF00000000000000000000000000010386CC66A
:101D0000C6C6FE000000000000003C66C2C0C0C0A5
:101D1000C0C2663C187000000000CC0000CCCCCCE7
:101D2000CCCCCC7600000000000C1830007CC6FE45
:101D3000C0C0C67C000000000010386C00780C7C2D
:101D4000CCCCCC76000000000000CC0000780C7CED
:101D5000CCCCCC76000000000060301800780C7C01
:101D6000CCCCCC760000000000386C3800780C7CBD
:101D7000CCCCCC760000000000000000007CC6C087
:101D8000C0C0C67C187000000010386C007CC6FE15
:101D9000C0C0C67C000000000000C600007CC6FE7B
:101DA000C0C0C67C0000000000603018007CC6FE89
:101DB000C0C0C67C00000000000066000038181893
:101DC0001818183C0000000000183C66003818186D
:101DD0001818183C0000000000603018003818186F
:101DE0001818183C0000000000C60010386CC6C669
:101DF000FEC6C6C600000000386C3810386CC6FE3F
:101E0000C6C6C6C6000000000C1800FE66626878F0
:101E1000686266FE000000000000000000EC36363C
:101E20007ED8D86E0000000000003E6CCCCCFECC0A
:101E3000CCCCCCCE000000000010386C007CC6C6B4
:101E4000C6C6C67C000000000000C600007CC6C6F6
:101E5000C6C6C67C0000000000603018007CC6C604
:101E6000C6C6C67C00000000003078CC00CCCCCCCC
:101E7000CCCCCC76000000000060301800CCCCCC7C
:101E8000CCCCCC76000000000000C60000C6C6C660
:101E9000C6C6C67E060C780000C6007CC6C6C6C68E
:101EA000C6C6C67C0000000000C600C6C6C6C6C6C0
:101EB000C6C6C67C000000000018187CC6C0C0C0A2
:101EC000C67C18180000000000386C6460F0606088
:101ED0006060E6FC00000000000066663C187E18AA
:101EE0007E1818180000000000F8CCCCF8C4CCDE36
:101EF000CCCCCCC600000000000E1B1818187E18B1
:101F00001818D870000000000018306000780C7CB1
:101F1000CCCCCC7600000000000C1830003818182B
:101F20001818183C0000000000183060007CC6C67D
:101F3000C6C6C67C000000000018306000CCCCCCC7
:101F4000CCCCCC7600000000000076DC00DC6666BD
:101F5000666666660000000076DC00C6E6F6FEDE19
:101F6000CEC6C6C60000000000003C6C6C3E007E81
:101F700000000000000000000000386C6C38007C9D
:101F80000000000000000000000030300030306031
:101F9000C0C6C67C00000000000000000000FEC0BB
:101FA000C0C0C00000000000000000000000FE06ED
:101FB00006060600000000000060E062666C183053
:101FC00060DC860C183E00000060E062666C183031
:101FD00066CE9A3F06060000000018180018181870
:101FE0003C3C3C18000000000000000000366CD8AB
:101FF0006C360000000000000000000000D86C36C5
:102000006CD8000000000000114411441144114438
:10201000114411441144114455AA55AA55AA55AA70
:1020200055AA55AA55AA55AADD77DD77DD77DD7764
:10203000DD77DD77DD77DD77181818181818181890
:10204000181818181818181818181818181818F830
:1020500018181818181818181818181818F818F840
:10206000181818181818181836363636363636F640
:10207000363636363636363600000000000000FEB2
:1020800036363636363636360000000000F818F898
:1020900018181818181818183636363636F606F680
:1020A00036363636363636363636363636363636D0
:1020B00036363636363636360000000000FE06F676
:1020C00036363636363636363636363636F606FE58
:1020D000000000000000000036363636363636FE88
:1020E00000000000000000001818181818F818F870
:1020F000000000000000000000000000000000F8E8
:102100001818181818181818181818181818181F48
:10211000000000000000000018181818181818FF18
:10212000000000000000000000000000000000FFB0
:102130001818181818181818181818181818181F18
:10214000181818181818181800000000000000FFD0
:10215000000000000000000018181818181818FFD8
:10216000181818181818181818181818181F181FE1
:1021700018181818181818183636363636363637EE
:102180003636363636363636363636363637303FEB
:10219000000000000000000000000000003F303799
:1021A00036363636363636363636363636F700FF7B
:1021B00000000000000000000000000000FF00F729
:1021C00036363636363636363636363636373037B3
:1021D00036363636363636360000000000FF00FF51
:1021E00000000000000000003636363636F700F7F3
:1021F00036363636363636361818181818FF00FFB9
:10220000000000000000000036363636363636FF55
:1022100000000000000000000000000000FF00FFC0
:10222000181818181818181800000000000000FFEF
:102230003636363636363636363636363636363F35
:10224000000000000000000018181818181F181FC0
:10225000000000000000000000000000001F181F28
:102260001818181818181818000000000000003F6F
:10227000363636363636363636363636363636FF35
:1022800036363636363636361818181818FF18FF10
:10229000181818181818181818181818181818F8DE
:1022A0000000000000000000000000000000001F0F
:1022B0001818181818181818FFFFFFFFFFFFFFFF66
:1022C000FFFFFFFFFFFFFFFF00000000000000FF17
:1022D000FFFFFFFFFFFFFFFFF0F0F0F0F0F0F0F086
:1022E000F0F0F0F0F0F0F0F00F0F0F0F0F0F0F0FF6
:1022F0000F0F0F0F0F0F0F0FFFFFFFFFFFFFFF006D
:102300000000000000000000000000000076DCD8A3
:10231000D8D8DC7600000000000078CCCCCCD8CC3B
:10232000C6C6C6CC000000000000FEC6C6C0C0C0C5
:10233000C0C0C0C0000000000000000000FE6C6CC7
:102340006C6C6C6C000000000000FEC66030181859
:102350003060C6FE0000000000000000007ED8D8FB
:10236000D8D8D87000000000000000000066666643
:102370006666667C6060C0000000000076DC1818AD
:10238000181818180000000000007E183C666666E9
:10239000663C187E000000000000386CC6C6FEC611
:1023A000C6C66C38000000000000386CC6C6C66C9B
:1023B0006C6C6CEE0000000000001E30180C3E66D5
:1023C0006666663C0000000000000000007EDBDB6B
:1023D000DB7E00000000000000000003067EDBDB67
:1023E000F37E60C00000000000001C3060607C6074
:1023F0006060301C000000000000007CC6C6C6C63D
:10240000C6C6C6C60000000000000000FE0000FEB8
:102410000000FE00000000000000000018187E18F8
:102420001800007E0000000000000030180C060CB0
:102430001830007E000000000000000C18306030F2
:10244000180C007E0000000000000E1B1B1818185E
:1024500018181818181818181818181818181818FC
:1024600018D8D8D870000000000000000018007EC6
:102470000018000000000000000000000076DC00F2
:1024800076DC00000000000000386C6C38000000B2
:102490000000000000000000000000000000001824
:1024A00018000000000000000000000000000018FC
:1024B0000000000000000000000F0C0C0C0C0CECE5
:1024C0006C6C3C1C00000000006C36363636360062
:1024D0000000000000000000003C660C18327E0086
:1024E0000000000000000000000000007E7E7E7EF4
:1024F0007E7E7E0000000000000000000000000062
:1025000000000000000000000000000000000000CB
:102510007E81A581BD99817E7EFFDBFFC3E7FF7EC3
:102520006CFEFEFE7C38100010387CFE7C381000FB
:10253000387C38FEFED6103810387CFEFE7C103811
:102540000000183C3C180000FFFFE7C3C3E7FFFF93
:10255000003C664242663C00FFC399BDBD99C3FF83
:102560000F070F7DCCCCCC783C6666663C187E1895
:102570003F333F303070F0E07F637F636367E6C0D6
:1025800018DB3CE7E73CDB1880E0F8FEF8E0800071
:10259000020E3EFE3E0E0200183C7E18187E3C18CD
:1025A00066666666660066007FDBDB7B1B1B1B00C6
:1025B0003E613C66663C867C000000007E7E7E00BC
:1025C000183C7E187E3C18FF183C7E18181818001E
:1025D000181818187E3C180000180CFE0C18000083
:1025E000003060FE603000000000C0C0C0FE00008F
:1025F000002466FF6624000000183C7EFFFF0000F8
:1026000000FFFF7E3C1800000000000000000000FA
:10261000183C3C18180018006666240000000000F2
:102620006C6CFE6CFE6C6C00183E603C067C180006
:1026300000C6CC183066C600386C3876DCCC760024
:1026400018183000000000000C18303030180C0052
:1026500030180C0C0C18300000663CFF3C66000083
:102660000018187E1818000000000000001818302C
:102670000000007E000000000000000000181800AC
:10268000060C183060C08000386CC6D6C66C3800A6
:102690001838181818187E007CC6061C3066FE0014
:1026A0007CC6063C06C67C001C3C6CCCFE0C1E00A6
:1026B000FEC0C0FC06C67C003860C0FCC6C67C00FC
:1026C000FEC60C18303030007CC6C67CC6C67C0006
:1026D0007CC6C67E060C780000181800001818008A
:1026E0000018180000181830060C1830180C0600D6
:1026F00000007E00007E00006030180C1830600082
:102700007CC60C18180018007CC6DEDEDEC078001F
:10271000386CC6FEC6C6C600FC66667C6666FC00F3
:102720003C66C0C0C0663C00F86C6666666CF8002B
:10273000FE6268786862FE00FE6268786860F00099
:102740003C66C0C0CE663A00C6C6C6FEC6C6C60057
:102750003C18181818183C001E0C0C0CCCCC780037
:10276000E6666C786C66E600F06060606266FE00AB
:10277000C6EEFEFED6C6C600C6E6F6DECEC6C6006D
:102780007CC6C6C6C6C67C00FC66667C6060F0007F
:102790007CC6C6C6C6CE7C0EFC66667C6C66E60051
:1027A0003C6630180C663C007E7E5A1818183C00B7
:1027B000C6C6C6C6C6C67C00C6C6C6C6C66C380077
:1027C000C6C6C6D6D6FE6C00C6C66C386CC6C60079
:1027D0006666663C18183C00FEC68C183266FE0021
:1027E0003C30303030303C00C06030180C06020005
:1027F0003C0C0C0C0C0C3C0010386CC600000000AB
:1028000000000000000000FF30180C000000000075
:102810000000780C7CCC7600E0607C666666DC00AC
:1028200000007CC6C0C67C001C0C7CCCCCCC7600E6
:1028300000007CC6FEC07C003C6660F86060F00072
:10284000000076CCCC7C0CF8E0606C766666E60026
:102850001800381818183C00060006060666663C84
:10286000E060666C786CE6003818181818183C00A0
:102870000000ECFED6D6D6000000DC666666660078
:1028800000007CC6C6C67C000000DC66667C60F08A
:10289000000076CCCC7C0C1E0000DC766060F00082
:1028A00000007EC07C06FC003030FC3030361C005E
:1028B0000000CCCCCCCC76000000C6C6C66C38007C
:1028C0000000C6D6D6FE6C000000C66C386CC60090
:1028D0000000C6C6C67E06FC00007E4C18327E0094
:1028E0000E18187018180E00181818181818180054
:1028F0007018180E1818700076DC00000000000038
:102900000010386CC6C6FE007CC6C0C0C67C0C7801
:10291000CC00CCCCCCCC76000C187CC6FEC07C00A5
:102920007C82780C7CCC7600C600780C7CCC76005F
:102930003018780C7CCC76003030780C7CCC76006B
:1029400000007EC0C07E0C387C827CC6FEC07C004D
:10295000C6007CC6FEC07C0030187CC6FEC07C0071
:102960006600381818183C007C82381818183C008B
:102970003018003818183C00C6386CC6FEC6C600B1
:10298000386C7CC6FEC6C6001830FEC0F8C0FE001B
:1029900000007E187ED87E003E6CCCFECCCCCE00F3
:1029A0007C827CC6C6C67C00C6007CC6C6C67C00CF
:1029B00030187CC6C6C67C00788400CCCCCC7600AF
:1029C0006030CCCCCCCC7600C600C6C6C67E06FC39
:1029D000C6386CC6C66C3800C600C6C6C6C67C0003
:1029E00018187EC0C07E1818386C64F06066FC0051
:1029F00066663C7E187E1818F8CCCCFAC6CFC6C7DF
:102A00000E1B183C18D870001830780C7CCC76005F
:102A10000C18003818183C000C187CC6C6C67C0080
:102A20001830CCCCCCCC760076DC00DC6666660058
:102A300076DC00E6F6DECE003C6C6C3E007E0000EC
:102A4000386C6C38007C00001800181830633E00A9
:102A5000000000FEC0C00000000000FE06060000EE
:102A600063E66C7E3366CC0F63E66C7A366ADF060B
:102A7000180018183C3C1800003366CC6633000080
:102A800000CC663366CC0000228822882288228807
:102A900055AA55AA55AA55AA77DD77DD77DD77DDEA
:102AA000181818181818181818181818F8181818C6
:102AB0001818F818F818181836363636F636363626
:102AC00000000000FE3636360000F818F818181816
:102AD0003636F606F6363636363636363636363646
:102AE0000000FE06F63636363636F606FE000000E4
:102AF00036363636FE0000001818F818F8000000C8
:102B000000000000F8181818181818181F00000006
:102B100018181818FF00000000000000FF1818180F
:102B2000181818181F18181800000000FF000000DF
:102B300018181818FF18181818181F181F18181820
:102B40003636363637363636363637303F000000C2
:102B500000003F30373636363636F700FF000000CB
:102B60000000FF00F7363636363637303736363621
:102B70000000FF00FF0000003636F700F73636365B
:102B80001818FF00FF00000036363636FF00000040
:102B90000000FF00FF18181800000000FF3636364E
:102BA000363636363F00000018181F181F00000088
:102BB00000001F181F181818000000003F36363696
:102BC00036363636FF3636361818FF18FF181818FE
:102BD00018181818F8000000000000001F18181836
:102BE000FFFFFFFFFFFFFFFF00000000FFFFFFFFF1
:102BF000F0F0F0F0F0F0F0F00F0F0F0F0F0F0F0FDD
:102C0000FFFFFFFF00000000000076DCC8DC76005C
:102C100078CCCCD8CCC6CC00FEC6C0C0C0C0C000EA
:102C20000000FE6C6C6C6C00FEC6603060C6FE007E
:102C300000007ED8D8D870000000666666667CC04A
:102C40000076DC18181818007E183C66663C187E62
:102C5000386CC6FEC66C3800386CC6C66C6CEE00AC
:102C60000E180C3E66663C0000007EDBDB7E00003A
:102C7000060C7EDBDB7E60C01E30607E60301E0096
:102C8000007CC6C6C6C6C60000FE00FE00FE0000F0
:102C900018187E1818007E0030180C1830007E00BE
:102CA0000C1830180C007E000E1B1B181818181872
:102CB0001818181818D8D8700018007E00180000CE
:102CC0000076DC0076DC0000386C6C380000000018
:102CD00000000018180000000000001800000000AC
:102CE0000F0C0C0CEC6C3C1C6C36363636000000BD
:102CF000780C18307C00000000003C3C3C3C00009C
:102D000000000000000000000000000000000000C3
:102D10007E81A581BD99817E7EFFDBFFC3E7FF7EBB
:102D20006CFEFEFE7C38100010387CFE7C381000F3
:102D3000387C38FEFED6103810387CFEFE7C103809
:102D40000000183C3C180000FFFFE7C3C3E7FFFF8B
:102D5000003C664242663C00FFC399BDBD99C3FF7B
:102D60000F070F7DCCCCCC783C6666663C187E188D
:102D70003F333F303070F0E07F637F636367E6C0CE
:102D800018DB3CE7E73CDB1880E0F8FEF8E0800069
:102D9000020E3EFE3E0E0200183C7E18187E3C18C5
:102DA00066666666660066007FDBDB7B1B1B1B00BE
:102DB0003E613C66663C867C000000007E7E7E00B4
:102DC000183C7E187E3C18FF183C7E181818180016
:102DD000181818187E3C180000180CFE0C1800007B
:102DE000003060FE603000000000C0C0C0FE000087
:102DF000002466FF6624000000183C7EFFFF0000F0
:102E000000FFFF7E3C1800000000000000000000F2
:102E1000183C3C3C180018006C6C000000000000DE
:102E20006C6CFE6CFE6C6C00183E603C067C1800FE
:102E300000C6CC183066C600386C6876DCCC7600EC
:102E400018183000000000000C18303030180C004A
:102E500030180C0C0C18300000663CFF3C6600007B
:102E60000018187E18180000000000000018183024
:102E70000000007E000000000000000000181800A4
:102E800003060C183060C0007CC6DEFEF6C67C006F
:102E900018781818181818007CC60C183060FE0036
:102EA0007CC6061C06C67C001C3C6CCCFE0C0C00D0
:102EB000FEC0FC0606C67C003860C0FCC6C67C00AE
:102EC000FE060C18306060007CC6C67CC6C67C005E
:102ED0007CC6C67E060C38000018180000181800C2
:102EE00000181800001818300C18306030180C004A
:102EF00000007E00007E000030180C060C18300028
:102F00003C66060C180018007CC6DEDEDEC07C00C5
:102F100010386CC6FEC6C600FCC6C6FCC6C6FC00A1
:102F20007CC6C0C0C0C67C00FCC6C6C6C6C6FC0007
:102F3000FEC0C0F8C0C0FE00FEC0C0F8C0C0C000E7
:102F40007CC6C0CEC6C67C00C6C6C6FEC6C6C60007
:102F50007E18181818187E0006060606C6C67C00DD
:102F6000C6CCD8F0D8CCC600C0C0C0C0C0C0FE001F
:102F700082C6EEFED6C6C600C6E6F6DECEC6C600E1
:102F80007CC6C6C6C6C67C00FCC6C6FCC0C0C000A7
:102F90007CC6C6C6F6DE7C06FCC6C6FCD8CCC6001F
:102FA0007CC660380CC67C007E18181818181800EB
:102FB000C6C6C6C6C6C67C00C3C366663C3C18000F
:102FC000C6C6C6D6FEEEC600C3663C183C66C30045
:102FD000C3C3663C18181800FE060C183060FE00CB
:102FE0003C30303030303C00C06030180C060300FC
:102FF0003C0C0C0C0C0C3C0010386CC600000000A3
:1030000000000000000000FE18180C000000000086
:1030100000007C067EC67E00C0C0FCC6C6C6FC00A2
:1030200000007CC6C0C67C0006067EC6C6C67E0002
:1030300000007CC6FEC07C003C6660F06060600002
:1030400000007EC6C67E067CC0C0FCC6C6C6C600E2
:103050001800381818181800060006060606C67C60
:10306000C0C0CCD8F0D8CC003818181818181800E0
:103070000000ECFED6C6C6000000FCC6C6C6C600F0
:1030800000007CC6C6C67C000000FCC6C6FCC0C0F2
:1030900000007EC6C67E06060000DCE6C0C0C0009A
:1030A00000007EC07C06FC0030307C3030361C00D6
:1030B0000000C6C6C6C67C000000C6C6C66C380086
:1030C0000000C6C6D6FE6C000000C66C386CC60098
:1030D0000000C3663C1830600000FE0C3860FE0043
:1030E0000E18187018180E0018181818181818004C
:1030F0007018180E18187000729C00000000000074
:103100000010386CC6C6FE007CC6C0C0C67C0C78F9
:10311000CC00CCCCCCCC76000C187CC6FEC07C009D
:103120007C82780C7CCC7600C600780C7CCC760057
:103130003018780C7CCC76003030780C7CCC760063
:1031400000007EC0C07E0C387C827CC6FEC07C0045
:10315000C6007CC6FEC07C0030187CC6FEC07C0069
:103160006600381818183C007C82381818183C0083
:103170003018003818183C00C6386CC6FEC6C600A9
:10318000386C7CC6FEC6C6001830FEC0F8C0FE0013
:1031900000007E187ED87E003E6CCCFECCCCCE00EB
:1031A0007C827CC6C6C67C00C6007CC6C6C67C00C7
:1031B00030187CC6C6C67C00788400CCCCCC7600A7
:1031C0006030CCCCCCCC7600C600C6C6C67E06FC31
:1031D000C6386CC6C66C3800C600C6C6C6C67C00FB
:1031E00018187EC0C07E1818386C64F06066FC0049
:1031F00066663C7E187E1818F8CCCCFAC6CFC6C7D7
:103200000E1B183C18D870001830780C7CCC760057
:103210000C18003818183C000C187CC6C6C67C0078
:103220001830CCCCCCCC760076DC00DC6666660050
:1032300076DC00E6F6DECE003C6C6C3E007E0000E4
:10324000386C6C38007C00001800181830633E00A1
:10325000000000FEC0C00000000000FE06060000E6
:1032600063E66C7E3366CC0F63E66C7A366ADF0603
:10327000180018183C3C1800003366CC6633000078
:1032800000CC663366CC00002288228822882288FF
:1032900055AA55AA55AA55AA77DD77DD77DD77DDE2
:1032A000181818181818181818181818F8181818BE
:1032B0001818F818F818181836363636F63636361E
:1032C00000000000FE3636360000F818F81818180E
:1032D0003636F606F636363636363636363636363E
:1032E0000000FE06F63636363636F606FE000000DC
:1032F00036363636FE0000001818F818F8000000C0
:1033000000000000F8181818181818181F000000FE
:1033100018181818FF00000000000000FF18181807
:10332000181818181F18181800000000FF000000D7
:1033300018181818FF18181818181F181F18181818
:103340003636363637363636363637303F000000BA
:1033500000003F30373636363636F700FF000000C3
:103360000000FF00F7363636363637303736363619
:103370000000FF00FF0000003636F700F736363653
:103380001818FF00FF00000036363636FF00000038
:103390000000FF00FF18181800000000FF36363646
:1033A000363636363F00000018181F181F00000080
:1033B00000001F181F181818000000003F3636368E
:1033C00036363636FF3636361818FF18FF181818F6
:1033D00018181818F8000000000000001F1818182E
:1033E000FFFFFFFFFFFFFFFF00000000FFFFFFFFE9
:1033F000F0F0F0F0F0F0F0F00F0F0F0F0F0F0F0FD5
:10340000FFFFFFFF00000000000076DCC8DC760054
:1034100078CCCCD8CCC6CC00FEC6C0C0C0C0C000E2
:103420000000FE6C6C6C6C00FEC6603060C6FE0076
:1034300000007ED8D8D870000000666666667CC042
:103440000076DC18181818007E183C66663C187E5A
:10345000386CC6FEC66C3800386CC6C66C6CEE00A4
:103460000E180C3E66663C0000007EDBDB7E000032
:10347000060C7EDBDB7E60C01E30607E60301E008E
:10348000007CC6C6C6C6C60000FE00FE00FE0000E8
:1034900018187E1818007E0030180C1830007E00B6
:1034A0000C1830180C007E000E1B1B18181818186A
:1034B0001818181818D8D8700018007E00180000C6
:1034C0000076DC0076DC0000386C6C380000000010
:1034D00000000018180000000000001800000000A4
:1034E0000F0C0C0CEC6C3C1C6C36363636000000B5
:1034F000780C18307C00000000003C3C3C3C000094
:103500000000000000000000070021000000010092
:103510000700230010000000070033001100386886
:10352000020000061200EB6C0300A4A80C000000CF
:103530000D000C080E00002B1E00B00001003F2BF8
:10354000050000000600000016001CEF1700030134
:103550000B0000000F0000004100000042000000CE
:103560004800000049003F014A0000004B000000F5
:10357000440000EF4500000046003F01300007070F
:103580003100040232000402330002053400070552
:103590003500040236000402370002053A00020337
:1035A0002F00BE123B000203230000002400000095
:1035B000250000804E0000004F000000DC350008B0
:1035C00000000020280000000C0800080436000855
:1035D00028000020280400001C080008000000004B
:1035E0000000000000A24A040000000000000000EB
:1035F00001020304060708090000000000000000A3
:0436000000000000C6
:0400000508000131BD
:00000001FF
