:020000040800F2
:1000000030040020450100082104000819040008FC
:100010001D04000869020008AD0700080000000088
:10002000000000000000000000000000490500087A
:100030006D020008000000003104000835060008C9
:100040005F0100085F0100085F0100085F01000810
:100050005F0100085F0100085F0100085F01000800
:100060005F0100085F0100085F0100085F010008F0
:100070005F0100085F0100085F0100085F010008E0
:100080005F0100085F0100085F0100085F010008D0
:100090005F0100085F0100085F0100085F010008C0
:1000A0005F0100085F0100085F0100085F010008B0
:1000B0005F0100085F0100085F0100085F010008A0
:1000C0005F0100085F0100085F0100085F01000890
:1000D0005F010008990600085F0100085F01000841
:1000E0005F0100085F0100085F0100085F01000870
:1000F0005F0100085F0100085F0100085F01000860
:100100005F0100085F0100085F0100085F0100084F
:100110005F0100085F0100085F0100085F0100083F
:100120005F0100085F0100085F0100085F0100082F
:10013000DFF80CD000F04AF800480047310E000804
:10014000300400200648804706480047FEE7FEE7E7
:10015000FEE7FEE7FEE7FEE7FEE7FEE7FEE7FEE777
:1001600039060008310100082DE9F05F054600203E
:1001700092469B4688460646814640241BE0284618
:1001800041464746224600F042F853465A46C01AB6
:10019000914110D311461846224600F029F82D1A35
:1001A00067EB01084F4622460120002100F020F8AD
:1001B00017EB00094E41201EA4F10104DFDC484684
:1001C00031462A464346BDE8F09F0000064C074DE5
:1001D00006E0E06840F0010394E807009847103417
:1001E000AC42F6D3FFF7A8FF68100008881000089B
:1001F000202A04DB203A00FA02F1002070479140E7
:10020000C2F1200320FA03F3194390407047202ADB
:1002100004DB203A21FA02F00021704721FA02F3B0
:10022000D040C2F1200291400843194670470000B7
:1002300008B501460020009003480090009808444B
:1002400000900098008808BD006C004008B50022AE
:100250000092044A0092009A02440092009A1160AF
:1002600008BD0000006C004000BFFEE770472DE9AC
:10027000F04102460025002600200023002400272C
:1002800091F803C00CF00F0591F803C00CF0100CAE
:10029000BCF1000F03D091F802C04CEA050591F8BB
:1002A00000C0BCF1000F31D0146800202BE04FF0EB
:1002B000010C0CFA00F3B1F800C00CEA03069E42F0
:1002C00020D183004FF00F0C0CFA03F7BC4305FA62
:1002D00003FC4CEA040491F803C0BCF1280F06D1DA
:1002E0004FF0010C0CFA00FCC2F814C00AE091F8BF
:1002F00003C0BCF1480F05D14FF0010C0CFA00FC13
:10030000C2F810C0401C0828D1D31460B1F800C056
:10031000BCF1FF0F34DD546800202EE000F1080C22
:100320004FF0010808FA0CF3B1F800C00CEA03061C
:100330009E4221D183004FF00F0C0CFA03F7BC430F
:1003400005FA03FC4CEA040491F803C0BCF1280F41
:1003500005D100F1080C08FA0CF8C2F8148091F8E5
:1003600003C0BCF1480F07D100F1080C4FF00108A1
:1003700008FA0CF8C2F81080401C0828CED354604C
:10038000BDE8F081F0B50A460023002400210025D5
:1003900000F00046B6F1004F02D11D4EF16901E0B8
:1003A0001B4E7168C0F3034583B200F44016B6F5E6
:1003B000401F08D121F07061154E766826F07066F6
:1003C000134F7E6012E000F48016B6F5801F06D150
:1003D000032606FA05F4A14341F0706106E0460DDC
:1003E000360103FA06F6B14341F0706122B1460DC1
:1003F000360103FA06F6314300F00046B6F1004F2D
:1004000002D1034EF16101E0014E7160F0BD0000C8
:10041000000001400161704700BFFEE700BFFEE73A
:1004200070470000014908627047000000000E425A
:100430007047000029B1064AD2690243044BDA61D1
:1004400004E0034AD2698243014BDA61704700003D
:100450000010024029B1064A92690243044B9A6196
:1004600004E0034A92698243014B9A61704700009D
:100470000010024030B500210022002400232D4D41
:100480006D6805F00C0121B1042905D0082923D19C
:1004900005E0294D056022E0274D05601FE0254D50
:1004A0006D6805F47012234D6D6805F480340225E3
:1004B00005EB92421CB9214D554305600BE01D4DE3
:1004C0006D6805F400351DB11C4D5543056002E013
:1004D000194D5543056002E0174D056000BF00BF90
:1004E000144D6D6805F0F0010909154D6B5C056848
:1004F000DD4045600F4D6D6805F4E061090A104D5F
:100500006B5C4568DD4085600A4D6D6805F460519F
:10051000C90A0B4D6B5C4568DD40C560054D6D68D3
:1005200005F44041890B074D6B5CC568B5FBF3F5DD
:10053000056130BD0010024000127A0000093D0044
:100540000000002010000020704710B500F002F8F5
:1005500010BD00000CB500200190009033480068E9
:1005600040F480303149086000BF3048006800F432
:10057000003000900198401C0190009818B9019833
:10058000B0F5A06FF1D12948006800F4003010B137
:100590000120009001E0002000900098012843D144
:1005A0002348006840F010002149086008460068B0
:1005B00020F0030008600846006840F00200086070
:1005C0001A4840681949486008464068486008462B
:1005D000406840F4806048600846406820F47C1021
:1005E00048600846406840F4E810486008460068E3
:1005F00040F08070086000BF0C48006800F0007098
:100600000028F9D00948406820F0030007494860F5
:100610000846406840F00200486000BF0348406858
:1006200000F00C000828F9D10CBD000000100240B9
:10063000002002407047000010B51348006840F0E9
:1006400001001149086008464068104908400E49F9
:100650004860084600680E4908400B490860084693
:10066000006820F4802008600846406820F4FE00FE
:1006700048604FF41F008860FFF767FF4FF000608D
:100680000449086010BD0000001002400000FFF89F
:10069000FFFFF6FE08ED00E0704721B1828942F4C9
:1006A0000052828104E082894DF6FF731A408281F4
:1006B000704702460020B1F5007F00D100BF1388CB
:1006C0000B400BB1012000E0002070472DE9F047FE
:1006D00086B005460E460024A24600BFA14600276C
:1006E000B08900B100BF2F462C8A4CF6FF70044041
:1006F000F08804432C82AC894EF6F3100440B08895
:1007000031890843718908430443AC81AC8A4FF6B0
:10071000FF400440B0890443AC8201A8FFF7AAFE61
:100720001F48874202D1DDF810A001E0DDF80CA0DF
:10073000A88900F4004040B10AEBCA0000EB0A109F
:1007400031684900B0FBF1F807E00AEBCA0000EBA2
:100750000A1031688900B0FBF1F86420B8FBF0F0B2
:1007600004012009642101FB1089A88900F40040DC
:1007700040B1322000EBC900B0FBF1F000F00700FF
:10078000044308E0322000EB09106421B0FBF1F0D3
:1007900000F00F0004432C8106B0BDE8F087000094
:1007A00000380140C1F308028280704700BFFEE7B5
:1007B0000FB4054B10B503A9044A029800F018F8CD
:1007C00010BC5DF814FB0000E50D000828000020B7
:1007D00002E008C8121F08C1002AFAD1704770470A
:1007E000002001E001C1121F002AFBD17047000068
:1007F0002DE9FF4F8DB00F460546002606E025285F
:100800000BD0DDE90F1290476D1C761C287800286C
:10081000F5D111B03046BDE8F08F0024A246A146C4
:100820000122EC4900E0044315F8013F203B02FAA5
:1008300003F00842F7D128782A2810D06FF02F0251
:100840002878A0F13001092914D80AEB8A0102EBBB
:10085000410144F0020400EB010A6D1CF0E701CFF6
:100860005FEA000A03D544F40054CAF1000A44F0D8
:1008700002046D1C28782E2817D115F8010F44F0BA
:1008800004042A280ED06FF02F022878A0F130013E
:1008900009290AD809EB890102EB410100EB0109A2
:1008A0006D1CF2E757F8049B6D1C28786C280FD05C
:1008B00006DC4C2817D068280DD06A2814D104E033
:1008C000742810D07A280FD10DE044F400140AE007
:1008D00044F4801401E044F440146978814202D168
:1008E00004F580146D1C6D1C2A786E2A1FD00CDC58
:1008F000632A31D004DC002A8BD0582A11D1A3E01E
:10090000642A68D0692A0CD165E0732A2ED004DCF1
:100910006F2A73D0702A04D19BE0752A6FD0782A91
:100920006ED01046DDE90F129047761C50E1C4F3FB
:100930000250022806D0032809D0042801CF09D08C
:10094000066045E101CFF117C0E9006140E101CF48
:1009500006803DE106703BE117F8040B8DF80000BE
:1009600000208DF80100EB46012003E057F804BB9E
:100970004FF0FF3061074FF0000102D40DE008F1A5
:100980000101884649450FDA8045F8DB1BF808105D
:100990000029F4D108E008F1010188468142FADB20
:1009A0001BF808100029F6D1DDE90F23AAEB080097
:1009B0008146214600F036F9304400EB080604E099
:1009C000DDE90F121BF8010B9047B8F10108F7D2CF
:1009D00021464846F7E00A21C4F302534FF0000BCA
:1009E0000891022B04D001CFC117032B09D00AE0D4
:1009F000FF1D27F00707F7E8020108E032E01FE0DB
:100A000020E000B2C117042B01D140B2C117031E70
:100A100071F1000307DA4FF0000CD0EB0C006CEB27
:100A200001012D2302E0230504D52B238DF824306A
:100A3000012303E0E30701D02023F7E7984658E0BD
:100A40000A2110E010210EE010204FF0000B08905A
:100A50000CE010214FF0000B44F004044FF00809A3
:100A6000089103E008214FF0000B0891C4F30253F2
:100A7000022B04D001CF0021032B06D006E0FF1D7E
:100A800027F00707F7E8020103E080B2042B00D14A
:100A9000C0B24FF0000823072BD5702A07D0DDF82D
:100AA00020C08CF0100C5CEA0B0C05D00EE040234B
:100AB0008DF82430012308E050EA010306D03023EA
:100AC0008DF824308DF8252002239846DDF820C0CB
:100AD0008CF0080C5CEA0B0C0BD150EA010301D13D
:100AE000630706D530238DF824304FF00108A9F1B3
:100AF0000109582A04D038A20B9208AA0A920BE0E6
:100B00003AA2F9E75B46089AFFF72EFB0B9B9B5C2A
:100B10000A9A521E0A92137050EA0102F2D10A9800
:100B2000ADEB000000F1200B600702D524F4803407
:100B300001E04FF00109D94502DDA9EB0B0000E00F
:100B4000002000EB0B0141440890AAEB010AE003EE
:100B500006D4DDE90F232146504600F063F8064431
:100B60004FF0000908E009A911F80900DDE90F12AA
:100B7000904709F10109761CC145F4DBE0030CD56F
:100B8000DDE90F232146504600F04CF8064404E00E
:100B9000DDE90F1230209047761C0899481E089016
:100BA0000029F5DC08E00A980A990078491C0A91A6
:100BB000DDE90F129047761CBBF10001ABF1010B90
:100BC000F1DC21465046DDE90F2300F019F8064418
:100BD0006D1C1BE6092801003031323334353637BD
:100BE0003839616263646566000000003031323379
:100BF0003435363738394142434445460000000019
:100C00002DE9F041044600251E461746880404D409
:100C100005E039462020B0476D1C641EF9D52846F2
:100C2000BDE8F0812DE9F041044600251E469046BE
:100C3000C80301D5302700E02027880404D505E04B
:100C400041463846B0476D1C641EF9D52846BDE8BC
:100C5000F08110B501214FF0C050FFF7EBFB10BD44
:100C600010B50020FFF7DEFB002010BD10B50120FD
:100C7000FFF7D8FB002010BD10B5044621880420E2
:100C8000FFF7E4FA61880820FFF7E0FAA1880C205A
:100C9000FFF7DCFAE1881020FFF7D8FA2189142049
:100CA000FFF7D4FA61891820FFF7D0FAA1891C2038
:100CB000FFF7CCFAE1892020FFF7C8FA218A242027
:100CC000FFF7C4FA618A2820FFF7C0FAA18A402002
:100CD000FFF7BCFAE18A4420FFF7B8FA218B4820DD
:100CE000FFF7B4FA618B4C20FFF7B0FAA18B5020CC
:100CF000FFF7ACFAE18B5420FFF7A8FA218C5820BB
:100D0000FFF7A4FA618C5C20FFF7A0FAA18C6020A9
:100D1000FFF79CFAE18C6420FFF798FA218D682098
:100D2000FFF794FA618D6C20FFF790FAA18D702087
:100D3000FFF78CFAE18D7420FFF788FA218E782076
:100D4000FFF784FA618E7C20FFF780FAA18E802065
:100D5000FFF77CFAE18E8420FFF778FA218F882054
:100D6000FFF774FA618F8C20FFF770FAA18F902043
:100D7000FFF76CFAE18F9420FFF768FAB4F840109F
:100D80009820FFF763FAB4F842109C20FFF75EFA50
:100D9000B4F84410A020FFF759FAB4F84610A42084
:100DA000FFF754FAB4F84810A820FFF74FFAB4F848
:100DB0004A10AC20FFF74AFAB4F84C10B020FFF705
:100DC00045FAB4F84E10B420FFF740FAB4F85010CA
:100DD000B820FFF73BFAB4F85210BC20FFF736FA00
:100DE000002010BD70B504460D46E1B20548FFF77E
:100DF000D9FC00BF40210348FFF75BFC0028F9D075
:100E0000204670BD0038014008B501210820FFF7D9
:100E100021FB0320ADF800008DF8020010208DF8B2
:100E2000030069460148FFF722FA08BD000C0140A3
:100E300096B0FFF7E9FF00F0D1F8FFF70AFF0121B4
:100E40002648FFF7E7FA26A0FFF7B2FC2F48006814
:100E50002F49B0FBF1F631462EA0FFF7A9FCFFF7B2
:100E600005FF0420FFF7E4F90546FFF7F9FE2946E0
:100E70002FA0FFF79DFC4AF25A50854224D031A0A2
:100E8000FFF796FC36A0FFF793FC43A0FFF790FC1A
:100E9000FFF7ECFE4AF25A510420FFF7D7F904207D
:100EA000FFF7C6F9ADF80400012405E045F65A2025
:100EB00001A921F81400641C2A2CF7DB01A8FFF714
:100EC000DBFEFFF7CDFE02E03CA0FFF771FC022144
:100ED0000248FFF79FFA00BFFEE70000000C014048
:100EE000200D0A2D2D2D2D204B65696C204D444B76
:100EF00020626B7020726567697374657220646527
:100F00006D6F202D2D2D2D0D0A00000014000020E6
:100F100040420F00202020202053544D33324631D0
:100F20003033204020256C754D487A0D0A0D0A009B
:100F3000424B505F445231203D2030782530347888
:100F40000D0A000020636F6C6420626F6F742C20A8
:100F500044523120697320656D7074792E0D0A003A
:100F60002077726974696E67203078413535412089
:100F7000746F204452312C2066696C6C696E672056
:100F80004452322D445234322077697468203078CC
:100F9000354135412E0D0A00207072657373207241
:100FA0006573657420746F20736565207761726D59
:100FB00020626F6F742E0D0A0000000020776172AE
:100FC0006D20626F6F742C20445231206973206E43
:100FD0006F7420656D7074792E0D0A0000B585B0B0
:100FE00000210420FFF7CEF9012144F20400FFF7AD
:100FF00031FA4FF40070ADF8000003208DF80200C4
:1010000018208DF8030069461548FFF730F94FF4B2
:101010008060ADF8000003208DF8020004208DF8F8
:10102000030069460E48FFF722F94FF4E1300190C2
:101030000020ADF810000C20ADF80E000020ADF837
:101040000C00ADF80A00ADF8080001A90548FFF74B
:101050003DFB01210348FFF720FB05B000BD000068
:1010600000080140003801408810000800000020FE
:101070002C000000D0070008B41000082C0000204D
:1010800004040000E007000800000000010203045F
:1010900001020304060708090204060800A24A0424
:1010A0000000000000000000010203040607080918
:0410B000000000003C
:0400000508000131BD
:00000001FF
