:020000040800F2
:1000000018040020450100084103000839030008D6
:100010003D0300088D010008890800080000000069
:10002000000000000000000000000000D9040008EB
:100030009101000800000000B5030008C505000894
:100040005F0100085F0100085F0100085F01000810
:100050005F0100085F0100085F0100085F01000800
:100060005F0100085F0100085F0100085F010008F0
:100070005F0100085F0100085F0100085F010008E0
:100080005F0100085F0100085F0100085F010008D0
:100090005F0100085F0100085F0100085F010008C0
:1000A0005F0100085F0100085F0100085F010008B0
:1000B000290600085F0100085F0100085F010008D1
:1000C0005F0100085F0100085F0100085F01000890
:1000D0005F010008750700085F0100085F01000864
:1000E0005F0100085F0100085F0100085F01000870
:1000F0005F0100085F0100085F0100085F01000860
:100100005F0100085F0100085F0100085F0100084F
:100110005F0100085F0100085F0100085F0100083F
:100120005F0100085F0100085F0100085F0100082F
:10013000DFF80CD000F018F8004800470909000863
:10014000180400200648804706480047FEE7FEE7FF
:10015000FEE7FEE7FEE7FEE7FEE7FEE7FEE7FEE777
:10016000C905000831010008064C074D06E0E068AB
:1001700040F0010394E8070098471034AC42F6D3EE
:10018000FFF7DAFFD80A0008F80A000800BFFEE708
:1001900070472DE9F041024600250026002000238B
:1001A0000024002791F803C00CF00F0591F803C05C
:1001B0000CF0100CBCF1000F03D091F802C04CEA17
:1001C000050591F800C0BCF1000F31D01468002083
:1001D0002BE04FF0010C0CFA00F3B1F800C00CEA70
:1001E00003069E4220D183004FF00F0C0CFA03F758
:1001F000BC4305FA03FC4CEA040491F803C0BCF1CB
:10020000280F06D14FF0010C0CFA00FCC2F814C004
:100210000AE091F803C0BCF1480F05D14FF0010C82
:100220000CFA00FCC2F810C0401C0828D1D314609E
:10023000B1F800C0BCF1FF0F34DD546800202EE09F
:1002400000F1080C4FF0010808FA0CF3B1F800C0F7
:100250000CEA03069E4221D183004FF00F0C0CFAEA
:1002600003F7BC4305FA03FC4CEA040491F803C00D
:10027000BCF1280F05D100F1080C08FA0CF8C2F8FF
:10028000148091F803C0BCF1480F07D100F1080CAD
:100290004FF0010808FA0CF8C2F81080401C08283A
:1002A000CED35460BDE8F081F0B50A4600230024A7
:1002B0000021002500F00046B6F1004F02D11D4E8E
:1002C000F16901E01B4E7168C0F3034583B200F48D
:1002D0004016B6F5401F08D121F07061154E7668C2
:1002E00026F07066134F7E6012E000F48016B6F5BB
:1002F000801F06D1032606FA05F4A14341F0706180
:1003000006E0460D360103FA06F6B14341F070618E
:1003100022B1460D360103FA06F6314300F00046DD
:10032000B6F1004F02D1034EF16101E0014E716060
:10033000F0BD00000000014000BFFEE700BFFEE787
:100340007047000070B5002100230F22C47804B369
:10035000154C246804F4E064C4F5E064210AC1F19A
:100360000403CA40447804FA03F18478144021431A
:1003700009010E4C0678A155047804F01F050124EC
:10038000AC4005786D11AD0005F1E025C5F80041E0
:1003900009E0047804F01F050124AC40044D067800
:1003A000761145F8264070BD0CED00E000E400E059
:1003B00080E100E07047000029B1064AD26902439B
:1003C000044BDA6104E0034AD2698243014BDA61EB
:1003D000704700000010024029B1064A92690243AA
:1003E000044B9A6104E0034A92698243014B9A618B
:1003F000704700000010024030B5002100220024A8
:1004000000232D4D6D6805F00C0121B1042905D0A4
:10041000082923D105E0294D056022E0274D05601C
:100420001FE0254D6D6805F47012234D6D6805F4CD
:100430008034022505EB92421CB9214D55430560DD
:100440000BE01D4D6D6805F400351DB11C4D554385
:10045000056002E0194D5543056002E0174D056047
:1004600000BF00BF144D6D6805F0F0010909154D7E
:100470006B5C0568DD4045600F4D6D6805F4E0611B
:10048000090A104D6B5C4568DD4085600A4D6D685A
:1004900005F46051C90A0B4D6B5C4568DD40C560D1
:1004A000054D6D6805F44041890B074D6B5CC568CF
:1004B000B5FBF3F5056130BD0010024000127A0073
:1004C00000093D0004000020140000200149C8710B
:1004D0007047000000100240704710B500F002F8AD
:1004E00010BD00000CB5002001900090334800685A
:1004F00040F480303149086000BF3048006800F4A3
:10050000003000900198401C0190009818B90198A3
:10051000B0F5A06FF1D12948006800F4003010B1A7
:100520000120009001E0002000900098012843D1B4
:100530002348006840F01000214908600846006820
:1005400020F0030008600846006840F002000860E0
:100550001A4840681949486008464068486008469B
:10056000406840F4806048600846406820F47C1091
:1005700048600846406840F46410486008460068D7
:1005800040F08070086000BF0C48006800F0007008
:100590000028F9D00948406820F003000749486066
:1005A0000846406840F00200486000BF03484068C9
:1005B00000F00C000828F9D10CBD0000001002402A
:1005C000002002407047000010B51348006840F05A
:1005D00001001149086008464068104908400E496A
:1005E0004860084600680E4908400B490860084604
:1005F000006820F4802008600846406820F4FE006F
:1006000048604FF41F008860FFF767FF4FF00060FD
:100610000449086010BD0000001002400000FFF80F
:10062000FFFFF6FE08ED00E010B50121880700F09D
:1006300031F8B8B10C480068401C0B490860012132
:10064000880700F018F8084800684FF47A71B0FB8A
:10065000F1F201FB120028B90448006880F00200A2
:100660000249086010BD0000000000200C0C014091
:10067000CA4302827047CA430282704721B102888E
:1006800042F00102028004E002884FF6FE731A4035
:100690000280704730B50246002000230024158AEE
:1006A00005EA0103958905EA010413B10CB10120A3
:1006B00000E0002030BD1AB183890B43838102E042
:1006C00083898B4383817047018582827047000054
:1006D000002202881D4B98420ED01D4B98420BD031
:1006E000B0F1804F08D01B4B984205D01A4B98426E
:1006F00002D01A4B984204D14FF68F731A404B88A0
:100700001A43174B984207D0164B984204D04FF625
:10071000FF431A40CB881A4302808B8883850B885D
:1007200003850A4B98420BD0094B984208D00E4BD8
:10073000984205D00D4B984202D00D4B984201D102
:100740000B7A03860123838270470000002C01404E
:10075000003401400004004000080040000C00404C
:1007600000100040001400400040014000440140DF
:1007700000480140704721B1828942F400528281D1
:1007800004E082894DF6FF731A4082817047024669
:100790000020B1F5007F00D100BF13880B400BB1E2
:1007A000012000E0002070472DE9F04786B00546A3
:1007B0000E460024A24600BFA1460027B08900B122
:1007C00000BF2F462C8A4CF6FF700440F08804438B
:1007D0002C82AC894EF6F3100440B088318908436E
:1007E000718908430443AC81AC8A4FF6FF40044052
:1007F000B0890443AC8201A8FFF7FEFD1F48874281
:1008000002D1DDF810A001E0DDF80CA0A88900F409
:10081000004040B10AEBCA0000EB0A103168490001
:10082000B0FBF1F807E00AEBCA0000EB0A103168F0
:100830008900B0FBF1F86420B8FBF0F00401200956
:10084000642101FB1089A88900F4004040B13220E6
:1008500000EBC900B0FBF1F000F00700044308E032
:10086000322000EB09106421B0FBF1F000F00F0022
:1008700004432C8106B0BDE8F08700000038014039
:10088000C1F308028280704700BFFEE702E008C89B
:10089000121F08C1002AFAD170477047002001E0FA
:1008A00001C1121F002AFBD17047000008B50121C9
:1008B0000820FFF791FD0320ADF800008DF802003D
:1008C00010208DF8030069460148FFF762FC08BD5F
:1008D000000C014008B501210420FFF77DFD4FF415
:1008E0008070ADF8000018208DF8030003208DF80B
:1008F000020069460348FFF74CFC0620FFF7E6FDBF
:1009000008BD000000080140FFF7D0FF00F03AF8F2
:10091000FFF7E0FF00F07EF803A000F0D1F810A090
:1009200000F0CEF800BFFEE7496620796F752063BE
:10093000616E207265616420746869732C2065762D
:100940006572797468696E6720697320636F6E667B
:100950006967757265642072696768742E0D0A0094
:1009600053544D333246313033206F766572636CA9
:100970006F636B656420746F203132384D487A2E76
:100980000D0A00001FB5002021490860012108461A
:10099000FFF712FD4FF6FF14ADF804400020ADF84C
:1009A0000A00ADF806000120ADF8080001A9800793
:1009B000FFF78EFE012221469007FFF785FE1C20DF
:1009C0008DF8000001208DF801006846FFF7BAFCA1
:1009D000012211469007FFF76EFE01218807FFF7FD
:1009E00047FE1C208DF8000000208DF8010001203A
:1009F0008DF802008DF803006846FFF7A3FC012183
:100A00008807FFF73BFE01218807FFF734FE1FBD73
:100A10000000002000B585B000210420FFF744FC51
:100A2000012144F20400FFF7D7FC4FF40070ADF849
:100A3000000003208DF8020018208DF8030069469D
:100A40001448FFF7A6FB4FF48060ADF800000320C8
:100A50008DF8020004208DF8030069460D48FFF769
:100A600098FB0D4801900020ADF810000C20ADF867
:100A70000E000020ADF80C00ADF80A00ADF808003B
:100A800001A90648FFF790FE01210448FFF773FE15
:100A900005B000BD0008014000093D0000380140DC
:100AA00010B5044600BF80210448FFF770FE0028FF
:100AB000F9D021460148FFF7E3FE10BD00380140A0
:100AC00010B5044603E014F8010BFFF7E9FF2078A6
:100AD0000028F8D110BD0000F80A0008000000202E
:100AE000180000008C080008100B000818000020F7
:100AF000000400009C080008000000000000000046
:100B0000010203040102030406070809020406089F
:0400000508000131BD
:00000001FF
